{
  "_format": "hh-sol-artifact-1",
  "contractName": "NFTStakingVault",
  "sourceName": "contracts/NFTStakingVault.sol",
  "abi": [
    {
      "inputs": [
        {
          "internalType": "address",
          "name": "_nftAddress",
          "type": "address"
        },
        {
          "internalType": "address",
          "name": "_tokenAddress",
          "type": "address"
        }
      ],
      "stateMutability": "nonpayable",
      "type": "constructor"
    },
    {
      "inputs": [],
      "name": "NFTStakingVault__ItemAlreadyStaked",
      "type": "error"
    },
    {
      "inputs": [],
      "name": "NFTStakingVault__NotItemOwner",
      "type": "error"
    },
    {
      "anonymous": false,
      "inputs": [
        {
          "indexed": false,
          "internalType": "address",
          "name": "owner",
          "type": "address"
        },
        {
          "indexed": false,
          "internalType": "uint256",
          "name": "reward",
          "type": "uint256"
        }
      ],
      "name": "Claimed",
      "type": "event"
    },
    {
      "anonymous": false,
      "inputs": [
        {
          "indexed": false,
          "internalType": "uint256",
          "name": "tokenId",
          "type": "uint256"
        },
        {
          "indexed": false,
          "internalType": "address",
          "name": "owner",
          "type": "address"
        },
        {
          "indexed": false,
          "internalType": "uint256",
          "name": "timestamp",
          "type": "uint256"
        }
      ],
      "name": "ItemStaked",
      "type": "event"
    },
    {
      "anonymous": false,
      "inputs": [
        {
          "indexed": false,
          "internalType": "uint256",
          "name": "tokenId",
          "type": "uint256"
        },
        {
          "indexed": false,
          "internalType": "address",
          "name": "owner",
          "type": "address"
        },
        {
          "indexed": false,
          "internalType": "uint256",
          "name": "timestamp",
          "type": "uint256"
        }
      ],
      "name": "ItemUnstaked",
      "type": "event"
    },
    {
      "anonymous": false,
      "inputs": [
        {
          "indexed": true,
          "internalType": "address",
          "name": "previousOwner",
          "type": "address"
        },
        {
          "indexed": true,
          "internalType": "address",
          "name": "newOwner",
          "type": "address"
        }
      ],
      "name": "OwnershipTransferred",
      "type": "event"
    },
    {
      "inputs": [
        {
          "internalType": "address",
          "name": "user",
          "type": "address"
        }
      ],
      "name": "balanceOf",
      "outputs": [
        {
          "internalType": "uint256",
          "name": "nftStakedbalance",
          "type": "uint256"
        }
      ],
      "stateMutability": "view",
      "type": "function"
    },
    {
      "inputs": [
        {
          "internalType": "uint256[]",
          "name": "tokenIds",
          "type": "uint256[]"
        }
      ],
      "name": "claim",
      "outputs": [],
      "stateMutability": "nonpayable",
      "type": "function"
    },
    {
      "inputs": [
        {
          "internalType": "uint256",
          "name": "stakingPeriod",
          "type": "uint256"
        }
      ],
      "name": "getDailyReward",
      "outputs": [
        {
          "internalType": "uint256",
          "name": "dailyReward",
          "type": "uint256"
        }
      ],
      "stateMutability": "pure",
      "type": "function"
    },
    {
      "inputs": [
        {
          "internalType": "uint256",
          "name": "_tokenId",
          "type": "uint256"
        }
      ],
      "name": "getRewardEarnedPerNft",
      "outputs": [
        {
          "internalType": "uint256",
          "name": "rewardEarned",
          "type": "uint256"
        }
      ],
      "stateMutability": "view",
      "type": "function"
    },
    {
      "inputs": [
        {
          "internalType": "address",
          "name": "user",
          "type": "address"
        }
      ],
      "name": "getTotalRewardEarned",
      "outputs": [
        {
          "internalType": "uint256",
          "name": "rewardEarned",
          "type": "uint256"
        }
      ],
      "stateMutability": "view",
      "type": "function"
    },
    {
      "inputs": [
        {
          "internalType": "address",
          "name": "",
          "type": "address"
        },
        {
          "internalType": "address",
          "name": "",
          "type": "address"
        },
        {
          "internalType": "uint256",
          "name": "",
          "type": "uint256"
        },
        {
          "internalType": "bytes",
          "name": "",
          "type": "bytes"
        }
      ],
      "name": "onERC721Received",
      "outputs": [
        {
          "internalType": "bytes4",
          "name": "",
          "type": "bytes4"
        }
      ],
      "stateMutability": "pure",
      "type": "function"
    },
    {
      "inputs": [],
      "name": "owner",
      "outputs": [
        {
          "internalType": "address",
          "name": "",
          "type": "address"
        }
      ],
      "stateMutability": "view",
      "type": "function"
    },
    {
      "inputs": [],
      "name": "renounceOwnership",
      "outputs": [],
      "stateMutability": "nonpayable",
      "type": "function"
    },
    {
      "inputs": [
        {
          "internalType": "uint256[]",
          "name": "tokenIds",
          "type": "uint256[]"
        }
      ],
      "name": "stake",
      "outputs": [],
      "stateMutability": "nonpayable",
      "type": "function"
    },
    {
      "inputs": [
        {
          "internalType": "address",
          "name": "user",
          "type": "address"
        }
      ],
      "name": "tokensOfOwner",
      "outputs": [
        {
          "internalType": "uint256[]",
          "name": "tokens",
          "type": "uint256[]"
        }
      ],
      "stateMutability": "view",
      "type": "function"
    },
    {
      "inputs": [],
      "name": "totalItemsStaked",
      "outputs": [
        {
          "internalType": "uint256",
          "name": "",
          "type": "uint256"
        }
      ],
      "stateMutability": "view",
      "type": "function"
    },
    {
      "inputs": [
        {
          "internalType": "address",
          "name": "newOwner",
          "type": "address"
        }
      ],
      "name": "transferOwnership",
      "outputs": [],
      "stateMutability": "nonpayable",
      "type": "function"
    },
    {
      "inputs": [
        {
          "internalType": "uint256[]",
          "name": "tokenIds",
          "type": "uint256[]"
        }
      ],
      "name": "unstake",
      "outputs": [],
      "stateMutability": "nonpayable",
      "type": "function"
    }
  ],
  "bytecode": "0x60c06040523480156200001157600080fd5b5060405162001d1838038062001d188339818101604052810190620000379190620001b0565b620000576200004b620000cd60201b60201c565b620000d560201b60201c565b8173ffffffffffffffffffffffffffffffffffffffff1660808173ffffffffffffffffffffffffffffffffffffffff1660601b815250508073ffffffffffffffffffffffffffffffffffffffff1660a08173ffffffffffffffffffffffffffffffffffffffff1660601b8152505050506200024a565b600033905090565b60008060009054906101000a900473ffffffffffffffffffffffffffffffffffffffff169050816000806101000a81548173ffffffffffffffffffffffffffffffffffffffff021916908373ffffffffffffffffffffffffffffffffffffffff1602179055508173ffffffffffffffffffffffffffffffffffffffff168173ffffffffffffffffffffffffffffffffffffffff167f8be0079c531659141344cd1fd0a4f28419497f9722a3daafe3b4186f6b6457e060405160405180910390a35050565b600081519050620001aa8162000230565b92915050565b60008060408385031215620001ca57620001c96200022b565b5b6000620001da8582860162000199565b9250506020620001ed8582860162000199565b9150509250929050565b600062000204826200020b565b9050919050565b600073ffffffffffffffffffffffffffffffffffffffff82169050919050565b600080fd5b6200023b81620001f7565b81146200024757600080fd5b50565b60805160601c60a05160601c611a86620002926000396000610dd001526000818161039101528181610487015281816107ae0152818161090001526110920152611a866000f3fe608060405234801561001057600080fd5b50600436106100cf5760003560e01c806370a082311161008c5780638da5cb5b116100665780638da5cb5b14610224578063d88d200014610242578063e449f34114610272578063f2fde38b1461028e576100cf565b806370a08231146101ba578063715018a6146101ea5780638462151c146101f4576100cf565b80630fbf0a93146100d4578063150b7a02146100f057806333e5877914610120578063454938e01461013e5780635704589c1461016e5780636ba4c1381461019e575b600080fd5b6100ee60048036038101906100e991906113b9565b6102aa565b005b61010a60048036038101906101059190611331565b610610565b6040516101179190611618565b60405180910390f35b610128610625565b6040516101359190611693565b60405180910390f35b610158600480360381019061015391906112d7565b61062b565b6040516101659190611693565b60405180910390f35b61018860048036038101906101839190611406565b61070a565b6040516101959190611693565b60405180910390f35b6101b860048036038101906101b391906113b9565b610798565b005b6101d460048036038101906101cf91906112d7565b6107a9565b6040516101e19190611693565b60405180910390f35b6101f26108d9565b005b61020e600480360381019061020991906112d7565b6108ed565b60405161021b91906115f6565b60405180910390f35b61022c610abe565b604051610239919061157b565b60405180910390f35b61025c60048036038101906102579190611406565b610ae7565b6040516102699190611693565b60405180910390f35b61028c600480360381019061028791906113b9565b610af9565b005b6102a860048036038101906102a391906112d7565b610b0a565b005b600080600084849050905060005b818110156105f4578585828181106102d3576102d261190a565b5b905060200201359350600073ffffffffffffffffffffffffffffffffffffffff166002600086815260200190815260200160002060000160009054906101000a900473ffffffffffffffffffffffffffffffffffffffff1673ffffffffffffffffffffffffffffffffffffffff1614610378576040517fc706acb600000000000000000000000000000000000000000000000000000000815260040160405180910390fd5b3373ffffffffffffffffffffffffffffffffffffffff167f000000000000000000000000000000000000000000000000000000000000000073ffffffffffffffffffffffffffffffffffffffff16636352211e866040518263ffffffff1660e01b81526004016103e89190611693565b60206040518083038186803b15801561040057600080fd5b505afa158015610414573d6000803e3d6000fd5b505050506040513d601f19601f820116820180604052508101906104389190611304565b73ffffffffffffffffffffffffffffffffffffffff1614610485576040517ff653d4c600000000000000000000000000000000000000000000000000000000815260040160405180910390fd5b7f000000000000000000000000000000000000000000000000000000000000000073ffffffffffffffffffffffffffffffffffffffff166342842e0e3330876040518463ffffffff1660e01b81526004016104e293929190611596565b600060405180830381600087803b1580156104fc57600080fd5b505af1158015610510573d6000803e3d6000fd5b5050505060405180604001604052803373ffffffffffffffffffffffffffffffffffffffff168152602001428152506002600086815260200190815260200160002060008201518160000160006101000a81548173ffffffffffffffffffffffffffffffffffffffff021916908373ffffffffffffffffffffffffffffffffffffffff160217905550602082015181600101559050507f718e21c56085c799f7e177a1bd6691cdbf9c929d9760133b991577c4887152908433426040516105d9939291906116ae565b60405180910390a182806001019350508060010190506102b8565b5081600154610603919061172f565b6001819055505050505050565b600063150b7a0260e01b905095945050505050565b60015481565b6000806000610639846108ed565b905060008151905060005b818110156106f2576000600260008584815181106106655761066461190a565b5b602002602001015181526020019081526020016000206001015490506000814261068f9190611810565b9050600061069c82610b8e565b905062015180670de0b6b3a7640000838360646106b991906117b6565b6106c391906117b6565b6106cd91906117b6565b6106d79190611785565b876106e2919061172f565b9650836001019350505050610644565b506064836107009190611785565b9350505050919050565b60008060026000848152602001908152602001600020600101549050600081426107349190611810565b9050600061074182610b8e565b9050600062015180670de0b6b3a76400008484606461076091906117b6565b61076a91906117b6565b61077491906117b6565b61077e9190611785565b905060648161078d9190611785565b945050505050919050565b6107a53383836000610c08565b5050565b6000807f000000000000000000000000000000000000000000000000000000000000000073ffffffffffffffffffffffffffffffffffffffff166318160ddd6040518163ffffffff1660e01b815260040160206040518083038186803b15801561081257600080fd5b505afa158015610826573d6000803e3d6000fd5b505050506040513d601f19601f8201168201806040525081019061084a9190611433565b905060005b8181116108d2578373ffffffffffffffffffffffffffffffffffffffff166002600083815260200190815260200160002060000160009054906101000a900473ffffffffffffffffffffffffffffffffffffffff1673ffffffffffffffffffffffffffffffffffffffff1614156108c7576001830192505b80600101905061084f565b5050919050565b6108e1610e78565b6108eb6000610ef6565b565b606060006108fa836107a9565b905060007f000000000000000000000000000000000000000000000000000000000000000073ffffffffffffffffffffffffffffffffffffffff166318160ddd6040518163ffffffff1660e01b815260040160206040518083038186803b15801561096457600080fd5b505afa158015610978573d6000803e3d6000fd5b505050506040513d601f19601f8201168201806040525081019061099c9190611433565b90508167ffffffffffffffff8111156109b8576109b7611939565b5b6040519080825280602002602001820160405280156109e65781602001602082028036833780820191505090505b5092506000808314156109fb57505050610ab9565b60005b828111610ab4578573ffffffffffffffffffffffffffffffffffffffff166002600083815260200190815260200160002060000160009054906101000a900473ffffffffffffffffffffffffffffffffffffffff1673ffffffffffffffffffffffffffffffffffffffff161415610a985780858381518110610a8357610a8261190a565b5b60200260200101818152505081806001019250505b83821415610aa95750505050610ab9565b8060010190506109fe565b505050505b919050565b60008060009054906101000a900473ffffffffffffffffffffffffffffffffffffffff16905090565b6000610af282610b8e565b9050919050565b610b063383836001610c08565b5050565b610b12610e78565b600073ffffffffffffffffffffffffffffffffffffffff168173ffffffffffffffffffffffffffffffffffffffff161415610b82576040517f08c379a0000000000000000000000000000000000000000000000000000000008152600401610b7990611633565b60405180910390fd5b610b8b81610ef6565b50565b600062278d008211610ba35760649050610c03565b62278d006003610bb391906117b6565b821015610bc35760c89050610c02565b62278d006006610bd391906117b6565b821015610be4576101909050610c01565b62278d006006610bf491906117b6565b8210610c005761032090505b5b5b5b919050565b60008060008086869050905060005b81811015610d7d57878782818110610c3257610c3161190a565b5b9050602002013594508873ffffffffffffffffffffffffffffffffffffffff166002600087815260200190815260200160002060000160009054906101000a900473ffffffffffffffffffffffffffffffffffffffff1673ffffffffffffffffffffffffffffffffffffffff1614610cd6576040517ff653d4c600000000000000000000000000000000000000000000000000000000815260040160405180910390fd5b60006002600087815260200190815260200160002060010154905060008142610cff9190611810565b90506000610d0c82610b8e565b905062015180670de0b6b3a764000083836064610d2991906117b6565b610d3391906117b6565b610d3d91906117b6565b610d479190611785565b87610d52919061172f565b965042600260008a815260200190815260200160002060010181905550836001019350505050610c17565b50606483610d8b9190611785565b91507fd8138f8a3f377c5259ca548e70e4c2de94f129f5a11036a15b69513cba2b426a8883604051610dbe9291906115cd565b60405180910390a160008214610e5c577f000000000000000000000000000000000000000000000000000000000000000073ffffffffffffffffffffffffffffffffffffffff166340c10f1989846040518363ffffffff1660e01b8152600401610e299291906115cd565b600060405180830381600087803b158015610e4357600080fd5b505af1158015610e57573d6000803e3d6000fd5b505050505b8415610e6e57610e6d888888610fba565b5b5050505050505050565b610e806111cf565b73ffffffffffffffffffffffffffffffffffffffff16610e9e610abe565b73ffffffffffffffffffffffffffffffffffffffff1614610ef4576040517f08c379a0000000000000000000000000000000000000000000000000000000008152600401610eeb90611673565b60405180910390fd5b565b60008060009054906101000a900473ffffffffffffffffffffffffffffffffffffffff169050816000806101000a81548173ffffffffffffffffffffffffffffffffffffffff021916908373ffffffffffffffffffffffffffffffffffffffff1602179055508173ffffffffffffffffffffffffffffffffffffffff168173ffffffffffffffffffffffffffffffffffffffff167f8be0079c531659141344cd1fd0a4f28419497f9722a3daafe3b4186f6b6457e060405160405180910390a35050565b600080600084849050905060005b818110156111b257858582818110610fe357610fe261190a565b5b9050602002013593508673ffffffffffffffffffffffffffffffffffffffff166002600086815260200190815260200160002060000160009054906101000a900473ffffffffffffffffffffffffffffffffffffffff1673ffffffffffffffffffffffffffffffffffffffff1614611090576040517f08c379a000000000000000000000000000000000000000000000000000000000815260040161108790611653565b60405180910390fd5b7f000000000000000000000000000000000000000000000000000000000000000073ffffffffffffffffffffffffffffffffffffffff166342842e0e3089876040518463ffffffff1660e01b81526004016110ed93929190611596565b600060405180830381600087803b15801561110757600080fd5b505af115801561111b573d6000803e3d6000fd5b5050505060026000858152602001908152602001600020600080820160006101000a81549073ffffffffffffffffffffffffffffffffffffffff0219169055600182016000905550507f175dc19fb4fe98420fd7e191684ecdc746cb34c7b69706c3713328d25f7be205848842604051611197939291906116ae565b60405180910390a18280600101935050806001019050610fc8565b50816001546111c19190611810565b600181905550505050505050565b600033905090565b6000813590506111e681611a22565b92915050565b6000815190506111fb81611a22565b92915050565b60008083601f8401126112175761121661196d565b5b8235905067ffffffffffffffff81111561123457611233611968565b5b6020830191508360208202830111156112505761124f611972565b5b9250929050565b60008083601f84011261126d5761126c61196d565b5b8235905067ffffffffffffffff81111561128a57611289611968565b5b6020830191508360018202830111156112a6576112a5611972565b5b9250929050565b6000813590506112bc81611a39565b92915050565b6000815190506112d181611a39565b92915050565b6000602082840312156112ed576112ec61197c565b5b60006112fb848285016111d7565b91505092915050565b60006020828403121561131a5761131961197c565b5b6000611328848285016111ec565b91505092915050565b60008060008060006080868803121561134d5761134c61197c565b5b600061135b888289016111d7565b955050602061136c888289016111d7565b945050604061137d888289016112ad565b935050606086013567ffffffffffffffff81111561139e5761139d611977565b5b6113aa88828901611257565b92509250509295509295909350565b600080602083850312156113d0576113cf61197c565b5b600083013567ffffffffffffffff8111156113ee576113ed611977565b5b6113fa85828601611201565b92509250509250929050565b60006020828403121561141c5761141b61197c565b5b600061142a848285016112ad565b91505092915050565b6000602082840312156114495761144861197c565b5b6000611457848285016112c2565b91505092915050565b600061146c838361155d565b60208301905092915050565b61148181611844565b82525050565b6000611492826116f5565b61149c818561170d565b93506114a7836116e5565b8060005b838110156114d85781516114bf8882611460565b97506114ca83611700565b9250506001810190506114ab565b5085935050505092915050565b6114ee81611856565b82525050565b600061150160268361171e565b915061150c82611981565b604082019050919050565b600061152460098361171e565b915061152f826119d0565b602082019050919050565b600061154760208361171e565b9150611552826119f9565b602082019050919050565b611566816118a2565b82525050565b611575816118a2565b82525050565b60006020820190506115906000830184611478565b92915050565b60006060820190506115ab6000830186611478565b6115b86020830185611478565b6115c5604083018461156c565b949350505050565b60006040820190506115e26000830185611478565b6115ef602083018461156c565b9392505050565b600060208201905081810360008301526116108184611487565b905092915050565b600060208201905061162d60008301846114e5565b92915050565b6000602082019050818103600083015261164c816114f4565b9050919050565b6000602082019050818103600083015261166c81611517565b9050919050565b6000602082019050818103600083015261168c8161153a565b9050919050565b60006020820190506116a8600083018461156c565b92915050565b60006060820190506116c3600083018661156c565b6116d06020830185611478565b6116dd604083018461156c565b949350505050565b6000819050602082019050919050565b600081519050919050565b6000602082019050919050565b600082825260208201905092915050565b600082825260208201905092915050565b600061173a826118a2565b9150611745836118a2565b9250827fffffffffffffffffffffffffffffffffffffffffffffffffffffffffffffffff0382111561177a576117796118ac565b5b828201905092915050565b6000611790826118a2565b915061179b836118a2565b9250826117ab576117aa6118db565b5b828204905092915050565b60006117c1826118a2565b91506117cc836118a2565b9250817fffffffffffffffffffffffffffffffffffffffffffffffffffffffffffffffff0483118215151615611805576118046118ac565b5b828202905092915050565b600061181b826118a2565b9150611826836118a2565b925082821015611839576118386118ac565b5b828203905092915050565b600061184f82611882565b9050919050565b60007fffffffff0000000000000000000000000000000000000000000000000000000082169050919050565b600073ffffffffffffffffffffffffffffffffffffffff82169050919050565b6000819050919050565b7f4e487b7100000000000000000000000000000000000000000000000000000000600052601160045260246000fd5b7f4e487b7100000000000000000000000000000000000000000000000000000000600052601260045260246000fd5b7f4e487b7100000000000000000000000000000000000000000000000000000000600052603260045260246000fd5b7f4e487b7100000000000000000000000000000000000000000000000000000000600052604160045260246000fd5b600080fd5b600080fd5b600080fd5b600080fd5b600080fd5b7f4f776e61626c653a206e6577206f776e657220697320746865207a65726f206160008201527f6464726573730000000000000000000000000000000000000000000000000000602082015250565b7f4e6f74204f776e65720000000000000000000000000000000000000000000000600082015250565b7f4f776e61626c653a2063616c6c6572206973206e6f7420746865206f776e6572600082015250565b611a2b81611844565b8114611a3657600080fd5b50565b611a42816118a2565b8114611a4d57600080fd5b5056fea264697066735822122067dd7a79716871bb98cd484c3c873cfe9c6ef4df3be96311ec574f348c30041d64736f6c63430008070033",
  "linkReferences": {},
  "deployedLinkReferences": {}
}